{
  "contractName": "Controller",
  "abi": [
    {
      "constant": true,
      "inputs": [],
      "name": "reserveRatio",
      "outputs": [
        {
          "name": "",
          "type": "uint32"
        }
      ],
      "payable": false,
      "stateMutability": "view",
      "type": "function"
    },
    {
      "constant": true,
      "inputs": [],
      "name": "virtualSupply",
      "outputs": [
        {
          "name": "",
          "type": "uint256"
        }
      ],
      "payable": false,
      "stateMutability": "view",
      "type": "function"
    },
    {
      "constant": true,
      "inputs": [
        {
          "name": "_supply",
          "type": "uint256"
        },
        {
          "name": "_connectorBalance",
          "type": "uint256"
        },
        {
          "name": "_connectorWeight",
          "type": "uint32"
        },
        {
          "name": "_depositAmount",
          "type": "uint256"
        }
      ],
      "name": "calculatePurchaseReturn",
      "outputs": [
        {
          "name": "",
          "type": "uint256"
        }
      ],
      "payable": false,
      "stateMutability": "view",
      "type": "function"
    },
    {
      "constant": true,
      "inputs": [
        {
          "name": "_supply",
          "type": "uint256"
        },
        {
          "name": "_connectorBalance",
          "type": "uint256"
        },
        {
          "name": "_connectorWeight",
          "type": "uint32"
        },
        {
          "name": "_sellAmount",
          "type": "uint256"
        }
      ],
      "name": "calculateSaleReturn",
      "outputs": [
        {
          "name": "",
          "type": "uint256"
        }
      ],
      "payable": false,
      "stateMutability": "view",
      "type": "function"
    },
    {
      "constant": true,
      "inputs": [],
      "name": "exponent",
      "outputs": [
        {
          "name": "",
          "type": "uint32"
        }
      ],
      "payable": false,
      "stateMutability": "view",
      "type": "function"
    },
    {
      "constant": true,
      "inputs": [],
      "name": "version",
      "outputs": [
        {
          "name": "",
          "type": "string"
        }
      ],
      "payable": false,
      "stateMutability": "view",
      "type": "function"
    },
    {
      "constant": true,
      "inputs": [
        {
          "name": "_fromConnectorBalance",
          "type": "uint256"
        },
        {
          "name": "_fromConnectorWeight",
          "type": "uint32"
        },
        {
          "name": "_toConnectorBalance",
          "type": "uint256"
        },
        {
          "name": "_toConnectorWeight",
          "type": "uint32"
        },
        {
          "name": "_amount",
          "type": "uint256"
        }
      ],
      "name": "calculateCrossConnectorReturn",
      "outputs": [
        {
          "name": "",
          "type": "uint256"
        }
      ],
      "payable": false,
      "stateMutability": "view",
      "type": "function"
    },
    {
      "constant": true,
      "inputs": [],
      "name": "slope",
      "outputs": [
        {
          "name": "",
          "type": "uint32"
        }
      ],
      "payable": false,
      "stateMutability": "view",
      "type": "function"
    },
    {
      "constant": true,
      "inputs": [],
      "name": "virtualBalance",
      "outputs": [
        {
          "name": "",
          "type": "uint256"
        }
      ],
      "payable": false,
      "stateMutability": "view",
      "type": "function"
    },
    {
      "inputs": [
        {
          "name": "_reserveRatio",
          "type": "uint32"
        },
        {
          "name": "_virtualSupply",
          "type": "uint256"
        },
        {
          "name": "_virtualBalance",
          "type": "uint256"
        }
      ],
      "payable": false,
      "stateMutability": "nonpayable",
      "type": "constructor"
    },
    {
      "anonymous": false,
      "inputs": [
        {
          "indexed": false,
          "name": "number",
          "type": "uint256"
        }
      ],
      "name": "logUint256",
      "type": "event"
    },
    {
      "anonymous": false,
      "inputs": [
        {
          "indexed": false,
          "name": "number",
          "type": "uint8"
        }
      ],
      "name": "logUint8",
      "type": "event"
    },
    {
      "anonymous": false,
      "inputs": [
        {
          "indexed": true,
          "name": "memeMarket",
          "type": "address"
        },
        {
          "indexed": true,
          "name": "to",
          "type": "address"
        },
        {
          "indexed": false,
          "name": "poolBalance",
          "type": "uint256"
        },
        {
          "indexed": false,
          "name": "tokenSupply",
          "type": "uint256"
        },
        {
          "indexed": false,
          "name": "amountTokens",
          "type": "uint256"
        },
        {
          "indexed": false,
          "name": "totalCostEth",
          "type": "uint256"
        }
      ],
      "name": "Buy",
      "type": "event"
    },
    {
      "anonymous": false,
      "inputs": [
        {
          "indexed": true,
          "name": "memeMarket",
          "type": "address"
        },
        {
          "indexed": true,
          "name": "from",
          "type": "address"
        },
        {
          "indexed": false,
          "name": "poolBalance",
          "type": "uint256"
        },
        {
          "indexed": false,
          "name": "tokenSupply",
          "type": "uint256"
        },
        {
          "indexed": false,
          "name": "amountTokens",
          "type": "uint256"
        },
        {
          "indexed": false,
          "name": "returnedEth",
          "type": "uint256"
        }
      ],
      "name": "Sell",
      "type": "event"
    },
    {
      "constant": true,
      "inputs": [
        {
          "name": "totalSupply",
          "type": "uint256"
        },
        {
          "name": "poolBalance",
          "type": "uint256"
        },
        {
          "name": "buyValue",
          "type": "uint256"
        }
      ],
      "name": "getBuy",
      "outputs": [
        {
          "name": "",
          "type": "uint256"
        }
      ],
      "payable": false,
      "stateMutability": "view",
      "type": "function"
    },
    {
      "constant": true,
      "inputs": [
        {
          "name": "totalSupply",
          "type": "uint256"
        },
        {
          "name": "poolBalance",
          "type": "uint256"
        },
        {
          "name": "sellAmount",
          "type": "uint256"
        }
      ],
      "name": "getSell",
      "outputs": [
        {
          "name": "",
          "type": "uint256"
        }
      ],
      "payable": false,
      "stateMutability": "view",
      "type": "function"
    },
    {
      "constant": false,
      "inputs": [
        {
          "name": "memeMarket",
          "type": "address"
        },
        {
          "name": "sender",
          "type": "address"
        }
      ],
      "name": "buy",
      "outputs": [
        {
          "name": "",
          "type": "bool"
        }
      ],
      "payable": true,
      "stateMutability": "payable",
      "type": "function"
    },
    {
      "constant": false,
      "inputs": [
        {
          "name": "memeMarket",
          "type": "address"
        },
        {
          "name": "sellAmount",
          "type": "uint256"
        }
      ],
      "name": "sell",
      "outputs": [
        {
          "name": "",
          "type": "bool"
        }
      ],
      "payable": false,
      "stateMutability": "nonpayable",
      "type": "function"
    },
    {
      "constant": false,
      "inputs": [
        {
          "name": "sender",
          "type": "address"
        },
        {
          "name": "_name",
          "type": "string"
        },
        {
          "name": "_symbol",
          "type": "string"
        },
        {
          "name": "hash_function",
          "type": "uint8"
        },
        {
          "name": "size",
          "type": "uint8"
        },
        {
          "name": "_memehash",
          "type": "bytes32"
        }
      ],
      "name": "initMeme",
      "outputs": [
        {
          "name": "",
          "type": "bool"
        }
      ],
      "payable": true,
      "stateMutability": "payable",
      "type": "function"
    }
  ],
  "bytecode": "0x60806040526040805190810160405280600381526020017f302e330000000000000000000000000000000000000000000000000000000000815250600090805190602001906200005192919062001004565b506002608360046101000a81548163ffffffff021916908363ffffffff1602179055506103e8608360086101000a81548163ffffffff021916908363ffffffff160217905550348015620000a457600080fd5b5060405160608062003ae2833981018060405281019080805190602001909291908051906020019092919080519060200190929190505050701c35fedd14ffffffffffffffffffffffff60016020608081101515620000ff57fe5b0181905550701b0ce43b323fffffffffffffffffffffff600160216080811015156200012757fe5b01819055507019f0028ec1ffffffffffffffffffffffff600160226080811015156200014f57fe5b01819055507018ded91f0e7fffffffffffffffffffffff600160236080811015156200017757fe5b01819055507017d8ec7f0417ffffffffffffffffffffff600160246080811015156200019f57fe5b01819055507016ddc6556cdbffffffffffffffffffffff60016025608081101515620001c757fe5b01819055507015ecf52776a1ffffffffffffffffffffff60016026608081101515620001ef57fe5b01819055507015060c256cb2ffffffffffffffffffffff600160276080811015156200021757fe5b0181905550701428a2f98d72ffffffffffffffffffffff600160286080811015156200023f57fe5b01819055507013545598e5c23fffffffffffffffffffff600160296080811015156200026757fe5b0181905550701288c4161ce1dfffffffffffffffffffff6001602a6080811015156200028f57fe5b01819055507011c592761c666fffffffffffffffffffff6001602b608081101515620002b757fe5b018190555070110a688680a757ffffffffffffffffffff6001602c608081101515620002df57fe5b0181905550701056f1b5bedf77ffffffffffffffffffff6001602d6080811015156200030757fe5b0181905550700faadceceeff8bffffffffffffffffffff6001602e6080811015156200032f57fe5b0181905550700f05dc6b27edadffffffffffffffffffff6001602f6080811015156200035757fe5b0181905550700e67a5a25da4107fffffffffffffffffff600160306080811015156200037f57fe5b0181905550700dcff115b14eedffffffffffffffffffff60016031608081101515620003a757fe5b0181905550700d3e7a392431239fffffffffffffffffff60016032608081101515620003cf57fe5b0181905550700cb2ff529eb71e4fffffffffffffffffff60016033608081101515620003f757fe5b0181905550700c2d415c3db974afffffffffffffffffff600160346080811015156200041f57fe5b0181905550700bad03e7d883f69bffffffffffffffffff600160356080811015156200044757fe5b0181905550700b320d03b2c343d5ffffffffffffffffff600160366080811015156200046f57fe5b0181905550700abc25204e02828dffffffffffffffffff600160376080811015156200049757fe5b0181905550700a4b16f74ee4bb207fffffffffffffffff60016038608081101515620004bf57fe5b01819055507009deaf736ac1f569ffffffffffffffffff60016039608081101515620004e757fe5b0181905550700976bd9952c7aa957fffffffffffffffff6001603a6080811015156200050f57fe5b01819055507009131271922eaa606fffffffffffffffff6001603b6080811015156200053757fe5b01819055507008b380f3558668c46fffffffffffffffff6001603c6080811015156200055f57fe5b0181905550700857ddf0117efa215bffffffffffffffff6001603d6080811015156200058757fe5b01819055507007ffffffffffffffffffffffffffffffff6001603e608081101515620005af57fe5b01819055507007abbf6f6abb9d087fffffffffffffffff6001603f608081101515620005d757fe5b018190555070075af62cbac95f7dfa7fffffffffffffff60016040608081101515620005ff57fe5b018190555070070d7fb7452e187ac13fffffffffffffff600160416080811015156200062757fe5b01819055507006c3390ecc8af379295fffffffffffffff600160426080811015156200064f57fe5b018190555070067c00a3b07ffc01fd6fffffffffffffff600160436080811015156200067757fe5b0181905550700637b647c39cbb9d3d27ffffffffffffff600160446080811015156200069f57fe5b01819055507005f63b1fc104dbd39587ffffffffffffff60016045608081101515620006c757fe5b01819055507005b771955b36e12f7235ffffffffffffff60016046608081101515620006ef57fe5b018190555070057b3d49dda84556d6f6ffffffffffffff600160476080811015156200071757fe5b018190555070054183095b2c8ececf30ffffffffffffff600160486080811015156200073f57fe5b018190555070050a28be635ca2b888f77fffffffffffff600160496080811015156200076757fe5b01819055507004d5156639708c9db33c3fffffffffffff6001604a6080811015156200078f57fe5b01819055507004a23105873875bd52dfdfffffffffffff6001604b608081101515620007b757fe5b0181905550700471649d87199aa990756fffffffffffff6001604c608081101515620007df57fe5b01819055507004429a21a029d4c1457cfbffffffffffff6001604d6080811015156200080757fe5b0181905550700415bc6d6fb7dd71af2cb3ffffffffffff6001604e6080811015156200082f57fe5b01819055507003eab73b3bbfe282243ce1ffffffffffff6001604f6080811015156200085757fe5b01819055507003c1771ac9fb6b4c18e229ffffffffffff600160506080811015156200087f57fe5b0181905550700399e96897690418f785257fffffffffff60016051608081101515620008a757fe5b0181905550700373fc456c53bb779bf0ea9fffffffffff60016052608081101515620008cf57fe5b018190555070034f9e8e490c48e67e6ab8bfffffffffff60016053608081101515620008f757fe5b018190555070032cbfd4a7adc790560b3337ffffffffff600160546080811015156200091f57fe5b018190555070030b50570f6e5d2acca94613ffffffffff600160556080811015156200094757fe5b01819055507002eb40f9f620fda6b56c2861ffffffffff600160566080811015156200096f57fe5b01819055507002cc8340ecb0d0f520a6af58ffffffffff600160576080811015156200099757fe5b01819055507002af09481380a0a35cf1ba02ffffffffff60016058608081101515620009bf57fe5b0181905550700292c5bdd3b92ec810287b1b3fffffffff60016059608081101515620009e757fe5b0181905550700277abdcdab07d5a77ac6d6b9fffffffff6001605a60808110151562000a0f57fe5b018190555070025daf6654b1eaa55fd64df5efffffffff6001605b60808110151562000a3757fe5b0181905550700244c49c648baa98192dce88b7ffffffff6001605c60808110151562000a5f57fe5b018190555070022ce03cd5619a311b2471268bffffffff6001605d60808110151562000a8757fe5b0181905550700215f77c045fbe885654a44a0fffffffff6001605e60808110151562000aaf57fe5b01819055507001ffffffffffffffffffffffffffffffff6001605f60808110151562000ad757fe5b01819055507001eaefdbdaaee7421fc4d3ede5ffffffff6001606060808110151562000aff57fe5b01819055507001d6bd8b2eb257df7e8ca57b09bfffffff6001606160808110151562000b2757fe5b01819055507001c35fedd14b861eb0443f7f133fffffff6001606260808110151562000b4f57fe5b01819055507001b0ce43b322bcde4a56e8ada5afffffff6001606360808110151562000b7757fe5b018190555070019f0028ec1fff007f5a195a39dfffffff6001606460808110151562000b9f57fe5b018190555070018ded91f0e72ee74f49b15ba527ffffff6001606560808110151562000bc757fe5b018190555070017d8ec7f04136f4e5615fd41a63ffffff6001606660808110151562000bef57fe5b018190555070016ddc6556cdb84bdc8d12d22e6fffffff6001606760808110151562000c1757fe5b018190555070015ecf52776a1155b5bd8395814f7fffff6001606860808110151562000c3f57fe5b018190555070015060c256cb23b3b3cc3754cf40ffffff6001606960808110151562000c6757fe5b01819055507001428a2f98d728ae223ddab715be3fffff6001606a60808110151562000c8f57fe5b018190555070013545598e5c23276ccf0ede68034fffff6001606b60808110151562000cb757fe5b01819055507001288c4161ce1d6f54b7f61081194fffff6001606c60808110151562000cdf57fe5b018190555070011c592761c666aa641d5a01a40f17ffff6001606d60808110151562000d0757fe5b0181905550700110a688680a7530515f3e6e6cfdcdffff6001606e60808110151562000d2f57fe5b01819055507001056f1b5bedf75c6bcb2ce8aed428ffff6001606f60808110151562000d5757fe5b01819055506ffaadceceeff8a0890f3875f008277fff6001607060808110151562000d7e57fe5b01819055506ff05dc6b27edad306388a600f6ba0bfff6001607160808110151562000da557fe5b01819055506fe67a5a25da41063de1495d5b18cdbfff6001607260808110151562000dcc57fe5b01819055506fdcff115b14eedde6fc3aa5353f2e4fff6001607360808110151562000df357fe5b01819055506fd3e7a3924312399f9aae2e0f868f8fff6001607460808110151562000e1a57fe5b01819055506fcb2ff529eb71e41582cccd5a1ee26fff6001607560808110151562000e4157fe5b01819055506fc2d415c3db974ab32a51840c0b67edff6001607660808110151562000e6857fe5b01819055506fbad03e7d883f69ad5b0a186184e06bff6001607760808110151562000e8f57fe5b01819055506fb320d03b2c343d4829abd6075f0cc5ff6001607860808110151562000eb657fe5b01819055506fabc25204e02828d73c6e80bcdb1a95bf6001607960808110151562000edd57fe5b01819055506fa4b16f74ee4bb2040a1ec6c15fbbf2df6001607a60808110151562000f0457fe5b01819055506f9deaf736ac1f569deb1b5ae3f36c130f6001607b60808110151562000f2b57fe5b01819055506f976bd9952c7aa957f5937d790ef650376001607c60808110151562000f5257fe5b01819055506f9131271922eaa6064b73a22d0bd4f2bf6001607d60808110151562000f7957fe5b01819055506f8b380f3558668c46c91c49a2f8e967b96001607e60808110151562000fa057fe5b01819055506f857ddf0117efa215952912839f6473e66001607f60808110151562000fc757fe5b018190555082608360006101000a81548163ffffffff021916908363ffffffff1602179055508160828190555080608181905550505050620010b3565b828054600181600116156101000203166002900490600052602060002090601f016020900481019282601f106200104757805160ff191683800117855562001078565b8280016001018555821562001078579182015b82811115620010775782518255916020019190600101906200105a565b5b5090506200108791906200108b565b5090565b620010b091905b80821115620010ac57600081600090555060010162001092565b5090565b90565b612a1f80620010c36000396000f3006080604052600436106100d0576000357c0100000000000000000000000000000000000000000000000000000000900463ffffffff1680630c7d5cd8146100d5578063277b2f971461010c57806329a00e7c1461013757806349f9b0f71461019c57806352f6ee581461020157806354fd4d501461023857806365098bb3146102c85780636c197ff51461033d5780637abc91a4146103a257806383caf275146103f75780638ddb47731461042e578063ad7fadc514610530578063dcd2af171461059e578063e83b8caa146105c9575b600080fd5b3480156100e157600080fd5b506100ea61061e565b604051808263ffffffff1663ffffffff16815260200191505060405180910390f35b34801561011857600080fd5b50610121610634565b6040518082815260200191505060405180910390f35b34801561014357600080fd5b506101866004803603810190808035906020019092919080359060200190929190803563ffffffff1690602001909291908035906020019092919050505061063a565b6040518082815260200191505060405180910390f35b3480156101a857600080fd5b506101eb6004803603810190808035906020019092919080359060200190929190803563ffffffff16906020019092919080359060200190929190505050610719565b6040518082815260200191505060405180910390f35b34801561020d57600080fd5b5061021661081d565b604051808263ffffffff1663ffffffff16815260200191505060405180910390f35b34801561024457600080fd5b5061024d610833565b6040518080602001828103825283818151815260200191508051906020019080838360005b8381101561028d578082015181840152602081019050610272565b50505050905090810190601f1680156102ba5780820380516001836020036101000a031916815260200191505b509250505060405180910390f35b3480156102d457600080fd5b5061032760048036038101908080359060200190929190803563ffffffff16906020019092919080359060200190929190803563ffffffff169060200190929190803590602001909291905050506108d1565b6040518082815260200191505060405180910390f35b34801561034957600080fd5b50610388600480360381019080803573ffffffffffffffffffffffffffffffffffffffff169060200190929190803590602001909291905050506109df565b604051808215151515815260200191505060405180910390f35b3480156103ae57600080fd5b506103e1600480360381019080803590602001909291908035906020019092919080359060200190929190505050611076565b6040518082815260200191505060405180910390f35b34801561040357600080fd5b5061040c6110b5565b604051808263ffffffff1663ffffffff16815260200191505060405180910390f35b610516600480360381019080803573ffffffffffffffffffffffffffffffffffffffff169060200190929190803590602001908201803590602001908080601f0160208091040260200160405190810160405280939291908181526020018383808284378201915050505050509192919290803590602001908201803590602001908080601f0160208091040260200160405190810160405280939291908181526020018383808284378201915050505050509192919290803560ff169060200190929190803560ff16906020019092919080356000191690602001909291905050506110cb565b604051808215151515815260200191505060405180910390f35b610584600480360381019080803573ffffffffffffffffffffffffffffffffffffffff169060200190929190803573ffffffffffffffffffffffffffffffffffffffff1690602001909291905050506110f9565b604051808215151515815260200191505060405180910390f35b3480156105aa57600080fd5b506105b36115fb565b6040518082815260200191505060405180910390f35b3480156105d557600080fd5b50610608600480360381019080803590602001909291908035906020019092919080359060200190929190505050611601565b6040518082815260200191505060405180910390f35b608360009054906101000a900463ffffffff1681565b60825481565b600080600080600080891180156106515750600088115b8015610663575060008763ffffffff16115b801561067e5750620f424063ffffffff168763ffffffff1611155b151561068957600080fd5b600086141561069b576000945061070d565b620f424063ffffffff168763ffffffff1614156106ce57876106bd8a88611640565b8115156106c657fe5b04945061070d565b6106d88689611673565b91506106e9828989620f4240611691565b80945081955050508260ff166106ff8a86611640565b9060020a9004905088810394505b50505050949350505050565b60008060008060008060008a1180156107325750600089115b8015610744575060008863ffffffff16115b801561075f5750620f424063ffffffff168863ffffffff1611155b801561076b5750898711155b151561077657600080fd5b60008714156107885760009550610810565b8987141561079857889550610810565b620f424063ffffffff168863ffffffff1614156107cb57896107ba8a89611640565b8115156107c357fe5b049550610810565b868a0392506107df8a84620f42408b611691565b80955081965050506107f18986611640565b91508360ff16899060020a0290508481830381151561080c57fe5b0495505b5050505050949350505050565b608360049054906101000a900463ffffffff1681565b60008054600181600116156101000203166002900480601f0160208091040260200160405190810160405280929190818152602001828054600181600116156101000203166002900480156108c95780601f1061089e576101008083540402835291602001916108c9565b820191906000526020600020905b8154815290600101906020018083116108ac57829003601f168201915b505050505081565b60008060008060008060008b1180156108f0575060008a63ffffffff16115b801561090b5750620f424063ffffffff168a63ffffffff1611155b80156109175750600089115b8015610929575060008863ffffffff16115b80156109445750620f424063ffffffff168863ffffffff1611155b151561094f57600080fd5b8763ffffffff168a63ffffffff1614156109885761096d8b88611673565b6109778a89611640565b81151561098057fe5b0495506109d1565b6109928b88611673565b92506109a0838c8c8b611691565b80955081965050506109b28986611640565b91508360ff16899060020a029050848183038115156109cd57fe5b0495505b505050505095945050505050565b6000806000806000851115156109f457600080fd5b848673ffffffffffffffffffffffffffffffffffffffff166370a08231336040518263ffffffff167c0100000000000000000000000000000000000000000000000000000000028152600401808273ffffffffffffffffffffffffffffffffffffffff1673ffffffffffffffffffffffffffffffffffffffff168152602001915050602060405180830381600087803b158015610a9057600080fd5b505af1158015610aa4573d6000803e3d6000fd5b505050506040513d6020811015610aba57600080fd5b810190808051906020019092919050505010151515610ad857600080fd5b8573ffffffffffffffffffffffffffffffffffffffff166318160ddd6040518163ffffffff167c0100000000000000000000000000000000000000000000000000000000028152600401602060405180830381600087803b158015610b3c57600080fd5b505af1158015610b50573d6000803e3d6000fd5b505050506040513d6020811015610b6657600080fd5b810190808051906020019092919050505092508573ffffffffffffffffffffffffffffffffffffffff166396365d446040518163ffffffff167c0100000000000000000000000000000000000000000000000000000000028152600401602060405180830381600087803b158015610bdd57600080fd5b505af1158015610bf1573d6000803e3d6000fd5b505050506040513d6020811015610c0757600080fd5b81019080805190602001909291905050509150610c25838387611076565b9050600081111515610c3657600080fd5b818111151515610c4557600080fd5b8573ffffffffffffffffffffffffffffffffffffffff16639dc29fac33876040518363ffffffff167c0100000000000000000000000000000000000000000000000000000000028152600401808373ffffffffffffffffffffffffffffffffffffffff1673ffffffffffffffffffffffffffffffffffffffff16815260200182815260200192505050602060405180830381600087803b158015610ce857600080fd5b505af1158015610cfc573d6000803e3d6000fd5b505050506040513d6020811015610d1257600080fd5b81019080805190602001909291905050501515610d2e57600080fd5b8573ffffffffffffffffffffffffffffffffffffffff166354dfcab6610d5d838561178990919063ffffffff16565b6040518263ffffffff167c010000000000000000000000000000000000000000000000000000000002815260040180828152602001915050600060405180830381600087803b158015610daf57600080fd5b505af1158015610dc3573d6000803e3d6000fd5b505050508573ffffffffffffffffffffffffffffffffffffffff166349dcbc5e33836040518363ffffffff167c0100000000000000000000000000000000000000000000000000000000028152600401808373ffffffffffffffffffffffffffffffffffffffff1673ffffffffffffffffffffffffffffffffffffffff16815260200182815260200192505050602060405180830381600087803b158015610e6a57600080fd5b505af1158015610e7e573d6000803e3d6000fd5b505050506040513d6020811015610e9457600080fd5b81019080805190602001909291905050501515610eb057600080fd5b3373ffffffffffffffffffffffffffffffffffffffff168673ffffffffffffffffffffffffffffffffffffffff167f4f4be38a8508fd47fad5f6d8d4dc1753a805beb3ce3f769802abc4d2165a6d8a8873ffffffffffffffffffffffffffffffffffffffff166396365d446040518163ffffffff167c0100000000000000000000000000000000000000000000000000000000028152600401602060405180830381600087803b158015610f6357600080fd5b505af1158015610f77573d6000803e3d6000fd5b505050506040513d6020811015610f8d57600080fd5b81019080805190602001909291905050508973ffffffffffffffffffffffffffffffffffffffff166318160ddd6040518163ffffffff167c0100000000000000000000000000000000000000000000000000000000028152600401602060405180830381600087803b15801561100257600080fd5b505af1158015611016573d6000803e3d6000fd5b505050506040513d602081101561102c57600080fd5b810190808051906020019092919050505089866040518085815260200184815260200183815260200182815260200194505050505060405180910390a36001935050505092915050565b60006110ac61108785608254611673565b61109385608154611673565b608360009054906101000a900463ffffffff1685610719565b90509392505050565b608360089054906101000a900463ffffffff1681565b6000803411156110eb576110df33886110f9565b15156110ea57600080fd5b5b600190509695505050505050565b60008060008060003411151561110e57600080fd5b8573ffffffffffffffffffffffffffffffffffffffff166318160ddd6040518163ffffffff167c0100000000000000000000000000000000000000000000000000000000028152600401602060405180830381600087803b15801561117257600080fd5b505af1158015611186573d6000803e3d6000fd5b505050506040513d602081101561119c57600080fd5b810190808051906020019092919050505092508573ffffffffffffffffffffffffffffffffffffffff166396365d446040518163ffffffff167c0100000000000000000000000000000000000000000000000000000000028152600401602060405180830381600087803b15801561121357600080fd5b505af1158015611227573d6000803e3d6000fd5b505050506040513d602081101561123d57600080fd5b8101908080519060200190929190505050915061125b838334611601565b905060008111151561126c57600080fd5b8573ffffffffffffffffffffffffffffffffffffffff166340c10f1986836040518363ffffffff167c0100000000000000000000000000000000000000000000000000000000028152600401808373ffffffffffffffffffffffffffffffffffffffff1673ffffffffffffffffffffffffffffffffffffffff16815260200182815260200192505050602060405180830381600087803b15801561130f57600080fd5b505af1158015611323573d6000803e3d6000fd5b505050506040513d602081101561133957600080fd5b8101908080519060200190929190505050151561135557600080fd5b8573ffffffffffffffffffffffffffffffffffffffff166354dfcab661138434856117a290919063ffffffff16565b6040518263ffffffff167c010000000000000000000000000000000000000000000000000000000002815260040180828152602001915050600060405180830381600087803b1580156113d657600080fd5b505af11580156113ea573d6000803e3d6000fd5b505050508573ffffffffffffffffffffffffffffffffffffffff166108fc349081150290604051600060405180830381858888f19350505050158015611434573d6000803e3d6000fd5b508473ffffffffffffffffffffffffffffffffffffffff168673ffffffffffffffffffffffffffffffffffffffff167f75a85e7be0265abefef113ee168a0d751385a985c3a37920ae97ae192d2eadb48873ffffffffffffffffffffffffffffffffffffffff166396365d446040518163ffffffff167c0100000000000000000000000000000000000000000000000000000000028152600401602060405180830381600087803b1580156114e857600080fd5b505af11580156114fc573d6000803e3d6000fd5b505050506040513d602081101561151257600080fd5b81019080805190602001909291905050508973ffffffffffffffffffffffffffffffffffffffff166318160ddd6040518163ffffffff167c0100000000000000000000000000000000000000000000000000000000028152600401602060405180830381600087803b15801561158757600080fd5b505af115801561159b573d6000803e3d6000fd5b505050506040513d60208110156115b157600080fd5b810190808051906020019092919050505085346040518085815260200184815260200183815260200182815260200194505050505060405180910390a36001935050505092915050565b60815481565b600061163761161285608254611673565b61161e85608154611673565b608360009054906101000a900463ffffffff168561063a565b90509392505050565b60008082840290506000841480611661575082848281151561165e57fe5b04145b151561166957fe5b8091505092915050565b600080828401905083811015151561168757fe5b8091505092915050565b6000806000806000807002000000000000000000000000000000008a1015156116b657fe5b886f800000000000000000000000000000008b028115156116d357fe5b04925070015bf0a8b1457695355fb8ac404e7a79e38310156116ff576116f8836117be565b935061170b565b61170883611d8d565b93505b8663ffffffff168863ffffffff16850281151561172457fe5b0491507008000000000000000000000000000000008210156117545761174982611ec3565b607f9550955061177c565b61175d82612483565b905061177681607f0360ff16839060020a900482612543565b81955095505b5050505094509492505050565b600082821115151561179757fe5b818303905092915050565b600081830190508281101515156117b557fe5b80905092915050565b60008060008060008093506fd3094c70f034de4b96ff7d5b6f99fcd886101515611828576f40000000000000000000000000000000840193506fd3094c70f034de4b96ff7d5b6f99fcd86f80000000000000000000000000000000870281151561182457fe5b0495505b6fa45af1e1f40c333b3de1db4dd55f29a786101515611887576f20000000000000000000000000000000840193506fa45af1e1f40c333b3de1db4dd55f29a76f80000000000000000000000000000000870281151561188357fe5b0495505b6f910b022db7ae67ce76b441c27035c6a1861015156118e6576f10000000000000000000000000000000840193506f910b022db7ae67ce76b441c27035c6a16f8000000000000000000000000000000087028115156118e257fe5b0495505b6f88415abbe9a76bead8d00cf112e4d4a886101515611945576f08000000000000000000000000000000840193506f88415abbe9a76bead8d00cf112e4d4a86f80000000000000000000000000000000870281151561194157fe5b0495505b6f84102b00893f64c705e841d5d4064bd3861015156119a4576f04000000000000000000000000000000840193506f84102b00893f64c705e841d5d4064bd36f8000000000000000000000000000000087028115156119a057fe5b0495505b6f8204055aaef1c8bd5c3259f4822735a286101515611a03576f02000000000000000000000000000000840193506f8204055aaef1c8bd5c3259f4822735a26f8000000000000000000000000000000087028115156119ff57fe5b0495505b6f810100ab00222d861931c15e39b44e9986101515611a62576f01000000000000000000000000000000840193506f810100ab00222d861931c15e39b44e996f800000000000000000000000000000008702811515611a5e57fe5b0495505b6f808040155aabbbe9451521693554f73386101515611ac0576e800000000000000000000000000000840193506f808040155aabbbe9451521693554f7336f800000000000000000000000000000008702811515611abc57fe5b0495505b6f80000000000000000000000000000000860392508291506f80000000000000000000000000000000838402811515611af557fe5b04905070010000000000000000000000000000000083700100000000000000000000000000000000038302811515611b2957fe5b04840193506f80000000000000000000000000000000818302811515611b4b57fe5b049150700200000000000000000000000000000000836faaaaaaaaaaaaaaaaaaaaaaaaaaaaaaaa038302811515611b7e57fe5b04840193506f80000000000000000000000000000000818302811515611ba057fe5b049150700300000000000000000000000000000000836f99999999999999999999999999999999038302811515611bd357fe5b04840193506f80000000000000000000000000000000818302811515611bf557fe5b049150700400000000000000000000000000000000836f92492492492492492492492492492492038302811515611c2857fe5b04840193506f80000000000000000000000000000000818302811515611c4a57fe5b049150700500000000000000000000000000000000836f8e38e38e38e38e38e38e38e38e38e38e038302811515611c7d57fe5b04840193506f80000000000000000000000000000000818302811515611c9f57fe5b049150700600000000000000000000000000000000836f8ba2e8ba2e8ba2e8ba2e8ba2e8ba2e8b038302811515611cd257fe5b04840193506f80000000000000000000000000000000818302811515611cf457fe5b049150700700000000000000000000000000000000836f89d89d89d89d89d89d89d89d89d89d89038302811515611d2757fe5b04840193506f80000000000000000000000000000000818302811515611d4957fe5b049150700800000000000000000000000000000000836f88888888888888888888888888888888038302811515611d7c57fe5b048401935083945050505050919050565b6000806000806000925070010000000000000000000000000000000085101515611dfd57611dd56f8000000000000000000000000000000086811515611dcf57fe5b04612967565b91508160ff16859060020a900494506f800000000000000000000000000000008260ff160292505b6f80000000000000000000000000000000851115611e8b57607f90505b60008160ff161115611e8a576f80000000000000000000000000000000858602811515611e4357fe5b04945070010000000000000000000000000000000085101515611e7e576001859060020a900494506001810360ff1660019060020a02830192505b80600190039050611e1a565b5b6f05b9de1d10bf4103d647b0955897ba806f03f80fe03f80fe03f80fe03f80fe03f88402811515611eb857fe5b049350505050919050565b600080600080600092506f1000000000000000000000000000000085811515611ee857fe5b0691508190506f80000000000000000000000000000000828202811515611f0b57fe5b0490506710e1b3be415a00008102830192506f80000000000000000000000000000000828202811515611f3a57fe5b0490506705a0913f6b1e00008102830192506f80000000000000000000000000000000828202811515611f6957fe5b049050670168244fdac780008102830192506f80000000000000000000000000000000828202811515611f9857fe5b049050664807432bc180008102830192506f80000000000000000000000000000000828202811515611fc657fe5b049050660c0135dca040008102830192506f80000000000000000000000000000000828202811515611ff457fe5b0490506601b707b1cdc0008102830192506f8000000000000000000000000000000082820281151561202257fe5b0490506536e0f639b8008102830192506f8000000000000000000000000000000082820281151561204f57fe5b049050650618fee9f8008102830192506f8000000000000000000000000000000082820281151561207c57fe5b049050649c197dcc008102830192506f800000000000000000000000000000008282028115156120a857fe5b049050640e30dce4008102830192506f800000000000000000000000000000008282028115156120d457fe5b04905064012ebd13008102830192506f8000000000000000000000000000000082820281151561210057fe5b0490506317499f008102830192506f8000000000000000000000000000000082820281151561212b57fe5b0490506301a9d4808102830192506f8000000000000000000000000000000082820281151561215657fe5b049050621c63808102830192506f8000000000000000000000000000000082820281151561218057fe5b0490506201c6388102830192506f800000000000000000000000000000008282028115156121aa57fe5b049050611ab88102830192506f800000000000000000000000000000008282028115156121d357fe5b04905061017c8102830192506f800000000000000000000000000000008282028115156121fc57fe5b04905060148102830192506f8000000000000000000000000000000082820281151561222457fe5b04905060018102830192506f80000000000000000000000000000000826721c3677c82b400008581151561225457fe5b040101925060006f1000000000000000000000000000000086161415156122a85770018ebef9eac820ae8682b9793ac6d1e7767001c3d6a24ed82218787d624d3e5eba95f984028115156122a457fe5b0492505b60006f2000000000000000000000000000000086161415156122f7577001368b2fc6f9609fe7aceb46aa619baed470018ebef9eac820ae8682b9793ac6d1e77884028115156122f357fe5b0492505b60006f400000000000000000000000000000008616141515612345576fbc5ab1b16779be3575bd8f0520a9f21f7001368b2fc6f9609fe7aceb46aa619baed5840281151561234157fe5b0492505b60006f800000000000000000000000000000008616141515612392576f454aaa8efe072e7f6ddbab84b40a55c96fbc5ab1b16779be3575bd8f0520a9f21e840281151561238e57fe5b0492505b600070010000000000000000000000000000000086161415156123e0576f0960aadc109e7a3bf4578099615711ea6f454aaa8efe072e7f6ddbab84b40a55c584028115156123dc57fe5b0492505b6000700200000000000000000000000000000000861614151561242d576e2bf84208204f5977f9a8cf01fdce3d6f0960aadc109e7a3bf4578099615711d7840281151561242957fe5b0492505b60007004000000000000000000000000000000008616141515612478576d03c6ab775dd0b95b4cbee7e65d116e2bf84208204f5977f9a8cf01fdc307840281151561247457fe5b0492505b829350505050919050565b60008060008060209250607f91505b8160ff166001840160ff1610156124e457600282840160ff168115156124b457fe5b0490508460018260ff166080811015156124ca57fe5b01541015156124db578092506124df565b8091505b612492565b8460018360ff166080811015156124f757fe5b01541015156125085781935061253b565b8460018460ff1660808110151561251b57fe5b015410151561252c5782935061253b565b6000151561253657fe5b600093505b505050919050565b6000806000849150600090508360ff168583029060020a900491506f03442c4e6074a82f1797f72ac00000008202810190508360ff168583029060020a900491506f0116b96f757c380fb287fd0e400000008202810190508360ff168583029060020a900491506e45ae5bdd5f0e03eca1ff43900000008202810190508360ff168583029060020a900491506e0defabf91302cd95b9ffda500000008202810190508360ff168583029060020a900491506e02529ca9832b22439efff9b80000008202810190508360ff168583029060020a900491506d54f1cf12bd04e516b6da880000008202810190508360ff168583029060020a900491506d0a9e39e257a09ca2d6db510000008202810190508360ff168583029060020a900491506d012e066e7b839fa050c3090000008202810190508360ff168583029060020a900491506c1e33d7d926c329a1ad1a8000008202810190508360ff168583029060020a900491506c02bee513bdb4a6b19b5f8000008202810190508360ff168583029060020a900491506b3a9316fa79b88eccf2a000008202810190508360ff168583029060020a900491506b048177ebe1fa8123752000008202810190508360ff168583029060020a900491506a5263fe90242dcbacf000008202810190508360ff168583029060020a900491506a057e22099c030d941000008202810190508360ff168583029060020a900491506957e22099c030d94100008202810190508360ff168583029060020a9004915069052b6b545699763100008202810190508360ff168583029060020a90049150684985f67696bf7480008202810190508360ff168583029060020a900491506803dea12ea99e4980008202810190508360ff168583029060020a900491506731880f2214b6e0008202810190508360ff168583029060020a9004915067025bcff56eb360008202810190508360ff168583029060020a90049150661b722e10ab10008202810190508360ff168583029060020a900491506601317c700770008202810190508360ff168583029060020a90049150650cba84aafa008202810190508360ff168583029060020a900491506482573a0a008202810190508360ff168583029060020a900491506405035ad9008202810190508360ff168583029060020a90049150632f881b008202810190508360ff168583029060020a900491506301b293408202810190508360ff168583029060020a90049150620efc408202810190508360ff168583029060020a90049150617fe08202810190508360ff168583029060020a900491506104208202810190508360ff168583029060020a9004915060218202810190508360ff168583029060020a9004915060018202810190508360ff1660019060020a02856f0688589cc0e9505e2f2fee55800000008381151561295a57fe5b0401019250505092915050565b600080600080915061010084101561299e575b6001841115612999576001849060020a9004935060018201915061297a565b6129e9565b608090505b60008160ff1611156129e8578060ff1660019060020a02841015156129d5578060ff16849060020a9004935080821791505b60018160ff169060020a900490506129a3565b5b81925050509190505600a165627a7a7230582066216eb540a897c98fdfa9fff8efd96593d4216dae863ef90f61484c50f9d7fd0029",
  "source": "import \"./ControllerI.sol\";\nimport \"./ERC20MainI.sol\";\nimport \"zeppelin-solidity/contracts/math/SafeMath.sol\";\nimport \"bancor-contracts/solidity/contracts/converter/BancorFormula.sol\";\n\ncontract Controller is ControllerI, BancorFormula {\n    using SafeMath for uint256;\n    uint256 public virtualBalance;\n    uint256 public virtualSupply;\n    uint32 public reserveRatio;  // represented in ppm, 1-1000000\n\n    uint32 public exponent = 2;\n    uint32 public slope = 1000;\n    event logUint256(uint256 number);\n    event logUint8(uint8 number);\n\n    event Buy(address indexed memeMarket, address indexed to, uint256 poolBalance, uint tokenSupply, uint256 amountTokens, uint256 totalCostEth);\n    event Sell(address indexed memeMarket, address indexed from, uint256 poolBalance, uint tokenSupply, uint256 amountTokens, uint256 returnedEth);\n\n    constructor (uint32 _reserveRatio, uint256 _virtualSupply, uint256 _virtualBalance) public {\n        reserveRatio = _reserveRatio;\n        virtualSupply = _virtualSupply;\n        virtualBalance = _virtualBalance;\n    }\n\n\n    function getBuy(uint256 totalSupply, uint256 poolBalance, uint256 buyValue) public constant returns(uint256) {\n        return calculatePurchaseReturn(\n            safeAdd(totalSupply, virtualSupply),\n            safeAdd(poolBalance, virtualBalance),\n            reserveRatio,\n            buyValue);\n    }\n\n\n    function getSell(uint256 totalSupply, uint256 poolBalance, uint256 sellAmount) public constant returns(uint256) {\n        return calculateSaleReturn(\n            safeAdd(totalSupply, virtualSupply),\n            safeAdd(poolBalance, virtualBalance),\n            reserveRatio,\n            sellAmount);\n    }\n\n    function buy(address memeMarket, address sender) public payable returns(bool) {\n        require(msg.value > 0);\n        uint256 totalSupply = ERC20MainI(memeMarket).totalSupply();\n        uint256 poolBalance = ERC20MainI(memeMarket).poolBalance();\n        uint256 tokens = getBuy(totalSupply, poolBalance, msg.value);\n        require(tokens > 0);\n        require(ERC20MainI(memeMarket).mint(sender, tokens));\n\n        ERC20MainI(memeMarket).setPoolBalance(poolBalance.add(msg.value));\n        memeMarket.transfer(msg.value);\n        emit Buy(memeMarket, sender, ERC20MainI(memeMarket).poolBalance(), ERC20MainI(memeMarket).totalSupply(), tokens, msg.value);\n        return true;\n    }\n\n\n    /**\n    * @dev sell Sell ClubTokens for Eth\n    * @param sellAmount The amount of tokens to sell\n    */\n    function sell(address memeMarket, uint256 sellAmount) public returns(bool) {\n        require(sellAmount > 0);\n        require(ERC20MainI(memeMarket).balanceOf(msg.sender) >= sellAmount);\n        uint256 totalSupply = ERC20MainI(memeMarket).totalSupply();\n        uint256 poolBalance = ERC20MainI(memeMarket).poolBalance();\n        uint256 saleReturn = getSell(totalSupply, poolBalance, sellAmount);\n\n        require(saleReturn > 0);\n        require(saleReturn <= poolBalance);\n        require(ERC20MainI(memeMarket).burn(msg.sender, sellAmount));\n        ERC20MainI(memeMarket).setPoolBalance(poolBalance.sub(saleReturn));\n        require(ERC20MainI(memeMarket).sendEth(msg.sender, saleReturn));\n\n        emit Sell(memeMarket, msg.sender, ERC20MainI(memeMarket).poolBalance(), ERC20MainI(memeMarket).totalSupply(), sellAmount, saleReturn);\n        return true;\n    }\n\n    function initMeme(\n        address sender,\n        string _name,\n        string _symbol,\n        uint8 hash_function,\n        uint8 size,\n        bytes32 _memehash\n    ) public payable returns (bool) {\n        if (msg.value > 0) {\n            require(buy(msg.sender, sender));\n        }\n        //@TODO if this is called with no numTokens and msg.value, the ether gets trapped in controller\n        return true;\n    }\n}\n",
  "sourcePath": "/Users/billy/sol/meme-lordz/contracts/Controller.sol",
  "compiler": {
    "name": "solc",
    "version": "0.4.24+commit.e67f0147.Emscripten.clang"
  },
  "schemaVersion": "2.0.1",
  "updatedAt": "2018-09-08T21:21:02.608Z"
}