{
  "contractName": "Controller",
  "abi": [
    {
      "constant": true,
      "inputs": [],
      "name": "reserveRatio",
      "outputs": [
        {
          "name": "",
          "type": "uint32"
        }
      ],
      "payable": false,
      "stateMutability": "view",
      "type": "function"
    },
    {
      "constant": true,
      "inputs": [],
      "name": "virtualSupply",
      "outputs": [
        {
          "name": "",
          "type": "uint256"
        }
      ],
      "payable": false,
      "stateMutability": "view",
      "type": "function"
    },
    {
      "constant": true,
      "inputs": [
        {
          "name": "_supply",
          "type": "uint256"
        },
        {
          "name": "_connectorBalance",
          "type": "uint256"
        },
        {
          "name": "_connectorWeight",
          "type": "uint32"
        },
        {
          "name": "_depositAmount",
          "type": "uint256"
        }
      ],
      "name": "calculatePurchaseReturn",
      "outputs": [
        {
          "name": "",
          "type": "uint256"
        }
      ],
      "payable": false,
      "stateMutability": "view",
      "type": "function"
    },
    {
      "constant": true,
      "inputs": [],
      "name": "decimals",
      "outputs": [
        {
          "name": "",
          "type": "uint8"
        }
      ],
      "payable": false,
      "stateMutability": "view",
      "type": "function"
    },
    {
      "constant": true,
      "inputs": [
        {
          "name": "_supply",
          "type": "uint256"
        },
        {
          "name": "_connectorBalance",
          "type": "uint256"
        },
        {
          "name": "_connectorWeight",
          "type": "uint32"
        },
        {
          "name": "_sellAmount",
          "type": "uint256"
        }
      ],
      "name": "calculateSaleReturn",
      "outputs": [
        {
          "name": "",
          "type": "uint256"
        }
      ],
      "payable": false,
      "stateMutability": "view",
      "type": "function"
    },
    {
      "constant": true,
      "inputs": [],
      "name": "exponent",
      "outputs": [
        {
          "name": "",
          "type": "uint32"
        }
      ],
      "payable": false,
      "stateMutability": "view",
      "type": "function"
    },
    {
      "constant": true,
      "inputs": [],
      "name": "version",
      "outputs": [
        {
          "name": "",
          "type": "string"
        }
      ],
      "payable": false,
      "stateMutability": "view",
      "type": "function"
    },
    {
      "constant": true,
      "inputs": [
        {
          "name": "_fromConnectorBalance",
          "type": "uint256"
        },
        {
          "name": "_fromConnectorWeight",
          "type": "uint32"
        },
        {
          "name": "_toConnectorBalance",
          "type": "uint256"
        },
        {
          "name": "_toConnectorWeight",
          "type": "uint32"
        },
        {
          "name": "_amount",
          "type": "uint256"
        }
      ],
      "name": "calculateCrossConnectorReturn",
      "outputs": [
        {
          "name": "",
          "type": "uint256"
        }
      ],
      "payable": false,
      "stateMutability": "view",
      "type": "function"
    },
    {
      "constant": true,
      "inputs": [],
      "name": "slope",
      "outputs": [
        {
          "name": "",
          "type": "uint32"
        }
      ],
      "payable": false,
      "stateMutability": "view",
      "type": "function"
    },
    {
      "constant": true,
      "inputs": [],
      "name": "virtualBalance",
      "outputs": [
        {
          "name": "",
          "type": "uint256"
        }
      ],
      "payable": false,
      "stateMutability": "view",
      "type": "function"
    },
    {
      "anonymous": false,
      "inputs": [
        {
          "indexed": false,
          "name": "number",
          "type": "uint256"
        }
      ],
      "name": "logUint256",
      "type": "event"
    },
    {
      "anonymous": false,
      "inputs": [
        {
          "indexed": false,
          "name": "number",
          "type": "uint8"
        }
      ],
      "name": "logUint8",
      "type": "event"
    },
    {
      "anonymous": false,
      "inputs": [
        {
          "indexed": true,
          "name": "memeMarket",
          "type": "address"
        },
        {
          "indexed": true,
          "name": "to",
          "type": "address"
        },
        {
          "indexed": false,
          "name": "poolBalance",
          "type": "uint256"
        },
        {
          "indexed": false,
          "name": "tokenSupply",
          "type": "uint256"
        },
        {
          "indexed": false,
          "name": "amountTokens",
          "type": "uint256"
        },
        {
          "indexed": false,
          "name": "totalCostEth",
          "type": "uint256"
        }
      ],
      "name": "Buy",
      "type": "event"
    },
    {
      "anonymous": false,
      "inputs": [
        {
          "indexed": true,
          "name": "memeMarket",
          "type": "address"
        },
        {
          "indexed": true,
          "name": "from",
          "type": "address"
        },
        {
          "indexed": false,
          "name": "poolBalance",
          "type": "uint256"
        },
        {
          "indexed": false,
          "name": "tokenSupply",
          "type": "uint256"
        },
        {
          "indexed": false,
          "name": "amountTokens",
          "type": "uint256"
        },
        {
          "indexed": false,
          "name": "returnedEth",
          "type": "uint256"
        }
      ],
      "name": "Sell",
      "type": "event"
    },
    {
      "anonymous": false,
      "inputs": [
        {
          "indexed": false,
          "name": "amount",
          "type": "uint256"
        },
        {
          "indexed": false,
          "name": "totalCost",
          "type": "uint256"
        }
      ],
      "name": "Minted",
      "type": "event"
    },
    {
      "anonymous": false,
      "inputs": [
        {
          "indexed": false,
          "name": "amount",
          "type": "uint256"
        },
        {
          "indexed": false,
          "name": "reward",
          "type": "uint256"
        }
      ],
      "name": "Burned",
      "type": "event"
    },
    {
      "constant": false,
      "inputs": [
        {
          "name": "totalSupply",
          "type": "uint256"
        },
        {
          "name": "poolBalance",
          "type": "uint256"
        },
        {
          "name": "numTokens",
          "type": "uint256"
        }
      ],
      "name": "priceToMint",
      "outputs": [
        {
          "name": "",
          "type": "uint256"
        }
      ],
      "payable": false,
      "stateMutability": "nonpayable",
      "type": "function"
    },
    {
      "constant": false,
      "inputs": [
        {
          "name": "totalSupply",
          "type": "uint256"
        },
        {
          "name": "poolBalance",
          "type": "uint256"
        },
        {
          "name": "numTokens",
          "type": "uint256"
        }
      ],
      "name": "rewardForBurn",
      "outputs": [
        {
          "name": "",
          "type": "uint256"
        }
      ],
      "payable": false,
      "stateMutability": "nonpayable",
      "type": "function"
    },
    {
      "constant": false,
      "inputs": [
        {
          "name": "memeMarket",
          "type": "address"
        },
        {
          "name": "numTokens",
          "type": "uint256"
        }
      ],
      "name": "mint",
      "outputs": [],
      "payable": true,
      "stateMutability": "payable",
      "type": "function"
    },
    {
      "constant": false,
      "inputs": [
        {
          "name": "memeMarket",
          "type": "address"
        },
        {
          "name": "numTokens",
          "type": "uint256"
        }
      ],
      "name": "burn",
      "outputs": [],
      "payable": false,
      "stateMutability": "nonpayable",
      "type": "function"
    },
    {
      "constant": false,
      "inputs": [
        {
          "name": "sender",
          "type": "address"
        },
        {
          "name": "_name",
          "type": "string"
        },
        {
          "name": "_symbol",
          "type": "string"
        },
        {
          "name": "hash_function",
          "type": "uint8"
        },
        {
          "name": "size",
          "type": "uint8"
        },
        {
          "name": "_memehash",
          "type": "bytes32"
        }
      ],
      "name": "initMeme",
      "outputs": [
        {
          "name": "",
          "type": "bool"
        }
      ],
      "payable": true,
      "stateMutability": "payable",
      "type": "function"
    }
  ],
  "bytecode": "0x60806040526040805190810160405280600381526020017f302e330000000000000000000000000000000000000000000000000000000000815250600090805190602001906200005192919062000fa9565b506012608360046101000a81548160ff021916908360ff1602179055506002608360056101000a81548163ffffffff021916908363ffffffff1602179055506103e8608360096101000a81548163ffffffff021916908363ffffffff160217905550701c35fedd14ffffffffffffffffffffffff60016020608081101515620000d657fe5b0181905550701b0ce43b323fffffffffffffffffffffff60016021608081101515620000fe57fe5b01819055507019f0028ec1ffffffffffffffffffffffff600160226080811015156200012657fe5b01819055507018ded91f0e7fffffffffffffffffffffff600160236080811015156200014e57fe5b01819055507017d8ec7f0417ffffffffffffffffffffff600160246080811015156200017657fe5b01819055507016ddc6556cdbffffffffffffffffffffff600160256080811015156200019e57fe5b01819055507015ecf52776a1ffffffffffffffffffffff60016026608081101515620001c657fe5b01819055507015060c256cb2ffffffffffffffffffffff60016027608081101515620001ee57fe5b0181905550701428a2f98d72ffffffffffffffffffffff600160286080811015156200021657fe5b01819055507013545598e5c23fffffffffffffffffffff600160296080811015156200023e57fe5b0181905550701288c4161ce1dfffffffffffffffffffff6001602a6080811015156200026657fe5b01819055507011c592761c666fffffffffffffffffffff6001602b6080811015156200028e57fe5b018190555070110a688680a757ffffffffffffffffffff6001602c608081101515620002b657fe5b0181905550701056f1b5bedf77ffffffffffffffffffff6001602d608081101515620002de57fe5b0181905550700faadceceeff8bffffffffffffffffffff6001602e6080811015156200030657fe5b0181905550700f05dc6b27edadffffffffffffffffffff6001602f6080811015156200032e57fe5b0181905550700e67a5a25da4107fffffffffffffffffff600160306080811015156200035657fe5b0181905550700dcff115b14eedffffffffffffffffffff600160316080811015156200037e57fe5b0181905550700d3e7a392431239fffffffffffffffffff60016032608081101515620003a657fe5b0181905550700cb2ff529eb71e4fffffffffffffffffff60016033608081101515620003ce57fe5b0181905550700c2d415c3db974afffffffffffffffffff60016034608081101515620003f657fe5b0181905550700bad03e7d883f69bffffffffffffffffff600160356080811015156200041e57fe5b0181905550700b320d03b2c343d5ffffffffffffffffff600160366080811015156200044657fe5b0181905550700abc25204e02828dffffffffffffffffff600160376080811015156200046e57fe5b0181905550700a4b16f74ee4bb207fffffffffffffffff600160386080811015156200049657fe5b01819055507009deaf736ac1f569ffffffffffffffffff60016039608081101515620004be57fe5b0181905550700976bd9952c7aa957fffffffffffffffff6001603a608081101515620004e657fe5b01819055507009131271922eaa606fffffffffffffffff6001603b6080811015156200050e57fe5b01819055507008b380f3558668c46fffffffffffffffff6001603c6080811015156200053657fe5b0181905550700857ddf0117efa215bffffffffffffffff6001603d6080811015156200055e57fe5b01819055507007ffffffffffffffffffffffffffffffff6001603e6080811015156200058657fe5b01819055507007abbf6f6abb9d087fffffffffffffffff6001603f608081101515620005ae57fe5b018190555070075af62cbac95f7dfa7fffffffffffffff60016040608081101515620005d657fe5b018190555070070d7fb7452e187ac13fffffffffffffff60016041608081101515620005fe57fe5b01819055507006c3390ecc8af379295fffffffffffffff600160426080811015156200062657fe5b018190555070067c00a3b07ffc01fd6fffffffffffffff600160436080811015156200064e57fe5b0181905550700637b647c39cbb9d3d27ffffffffffffff600160446080811015156200067657fe5b01819055507005f63b1fc104dbd39587ffffffffffffff600160456080811015156200069e57fe5b01819055507005b771955b36e12f7235ffffffffffffff60016046608081101515620006c657fe5b018190555070057b3d49dda84556d6f6ffffffffffffff60016047608081101515620006ee57fe5b018190555070054183095b2c8ececf30ffffffffffffff600160486080811015156200071657fe5b018190555070050a28be635ca2b888f77fffffffffffff600160496080811015156200073e57fe5b01819055507004d5156639708c9db33c3fffffffffffff6001604a6080811015156200076657fe5b01819055507004a23105873875bd52dfdfffffffffffff6001604b6080811015156200078e57fe5b0181905550700471649d87199aa990756fffffffffffff6001604c608081101515620007b657fe5b01819055507004429a21a029d4c1457cfbffffffffffff6001604d608081101515620007de57fe5b0181905550700415bc6d6fb7dd71af2cb3ffffffffffff6001604e6080811015156200080657fe5b01819055507003eab73b3bbfe282243ce1ffffffffffff6001604f6080811015156200082e57fe5b01819055507003c1771ac9fb6b4c18e229ffffffffffff600160506080811015156200085657fe5b0181905550700399e96897690418f785257fffffffffff600160516080811015156200087e57fe5b0181905550700373fc456c53bb779bf0ea9fffffffffff60016052608081101515620008a657fe5b018190555070034f9e8e490c48e67e6ab8bfffffffffff60016053608081101515620008ce57fe5b018190555070032cbfd4a7adc790560b3337ffffffffff60016054608081101515620008f657fe5b018190555070030b50570f6e5d2acca94613ffffffffff600160556080811015156200091e57fe5b01819055507002eb40f9f620fda6b56c2861ffffffffff600160566080811015156200094657fe5b01819055507002cc8340ecb0d0f520a6af58ffffffffff600160576080811015156200096e57fe5b01819055507002af09481380a0a35cf1ba02ffffffffff600160586080811015156200099657fe5b0181905550700292c5bdd3b92ec810287b1b3fffffffff60016059608081101515620009be57fe5b0181905550700277abdcdab07d5a77ac6d6b9fffffffff6001605a608081101515620009e657fe5b018190555070025daf6654b1eaa55fd64df5efffffffff6001605b60808110151562000a0e57fe5b0181905550700244c49c648baa98192dce88b7ffffffff6001605c60808110151562000a3657fe5b018190555070022ce03cd5619a311b2471268bffffffff6001605d60808110151562000a5e57fe5b0181905550700215f77c045fbe885654a44a0fffffffff6001605e60808110151562000a8657fe5b01819055507001ffffffffffffffffffffffffffffffff6001605f60808110151562000aae57fe5b01819055507001eaefdbdaaee7421fc4d3ede5ffffffff6001606060808110151562000ad657fe5b01819055507001d6bd8b2eb257df7e8ca57b09bfffffff6001606160808110151562000afe57fe5b01819055507001c35fedd14b861eb0443f7f133fffffff6001606260808110151562000b2657fe5b01819055507001b0ce43b322bcde4a56e8ada5afffffff6001606360808110151562000b4e57fe5b018190555070019f0028ec1fff007f5a195a39dfffffff6001606460808110151562000b7657fe5b018190555070018ded91f0e72ee74f49b15ba527ffffff6001606560808110151562000b9e57fe5b018190555070017d8ec7f04136f4e5615fd41a63ffffff6001606660808110151562000bc657fe5b018190555070016ddc6556cdb84bdc8d12d22e6fffffff6001606760808110151562000bee57fe5b018190555070015ecf52776a1155b5bd8395814f7fffff6001606860808110151562000c1657fe5b018190555070015060c256cb23b3b3cc3754cf40ffffff6001606960808110151562000c3e57fe5b01819055507001428a2f98d728ae223ddab715be3fffff6001606a60808110151562000c6657fe5b018190555070013545598e5c23276ccf0ede68034fffff6001606b60808110151562000c8e57fe5b01819055507001288c4161ce1d6f54b7f61081194fffff6001606c60808110151562000cb657fe5b018190555070011c592761c666aa641d5a01a40f17ffff6001606d60808110151562000cde57fe5b0181905550700110a688680a7530515f3e6e6cfdcdffff6001606e60808110151562000d0657fe5b01819055507001056f1b5bedf75c6bcb2ce8aed428ffff6001606f60808110151562000d2e57fe5b01819055506ffaadceceeff8a0890f3875f008277fff6001607060808110151562000d5557fe5b01819055506ff05dc6b27edad306388a600f6ba0bfff6001607160808110151562000d7c57fe5b01819055506fe67a5a25da41063de1495d5b18cdbfff6001607260808110151562000da357fe5b01819055506fdcff115b14eedde6fc3aa5353f2e4fff6001607360808110151562000dca57fe5b01819055506fd3e7a3924312399f9aae2e0f868f8fff6001607460808110151562000df157fe5b01819055506fcb2ff529eb71e41582cccd5a1ee26fff6001607560808110151562000e1857fe5b01819055506fc2d415c3db974ab32a51840c0b67edff6001607660808110151562000e3f57fe5b01819055506fbad03e7d883f69ad5b0a186184e06bff6001607760808110151562000e6657fe5b01819055506fb320d03b2c343d4829abd6075f0cc5ff6001607860808110151562000e8d57fe5b01819055506fabc25204e02828d73c6e80bcdb1a95bf6001607960808110151562000eb457fe5b01819055506fa4b16f74ee4bb2040a1ec6c15fbbf2df6001607a60808110151562000edb57fe5b01819055506f9deaf736ac1f569deb1b5ae3f36c130f6001607b60808110151562000f0257fe5b01819055506f976bd9952c7aa957f5937d790ef650376001607c60808110151562000f2957fe5b01819055506f9131271922eaa6064b73a22d0bd4f2bf6001607d60808110151562000f5057fe5b01819055506f8b380f3558668c46c91c49a2f8e967b96001607e60808110151562000f7757fe5b01819055506f857ddf0117efa215952912839f6473e66001607f60808110151562000f9e57fe5b018190555062001058565b828054600181600116156101000203166002900490600052602060002090601f016020900481019282601f1062000fec57805160ff19168380011785556200101d565b828001600101855582156200101d579182015b828111156200101c57825182559160200191906001019062000fff565b5b5090506200102c919062001030565b5090565b6200105591905b808211156200105157600081600090555060010162001037565b5090565b90565b61278980620010686000396000f3006080604052600436106100db576000357c0100000000000000000000000000000000000000000000000000000000900463ffffffff16806307b9d773146100e05780630c7d5cd814610135578063277b2f971461016c57806329a00e7c14610197578063313ce567146101fc57806340c10f191461022d57806349f9b0f71461026d57806352f6ee58146102d257806354fd4d501461030957806365098bb31461039957806383caf2751461040e5780638ddb477314610445578063919934e1146105475780639dc29fac1461059c578063dcd2af17146105e9575b600080fd5b3480156100ec57600080fd5b5061011f600480360381019080803590602001909291908035906020019092919080359060200190929190505050610614565b6040518082815260200191505060405180910390f35b34801561014157600080fd5b5061014a61064c565b604051808263ffffffff1663ffffffff16815260200191505060405180910390f35b34801561017857600080fd5b50610181610662565b6040518082815260200191505060405180910390f35b3480156101a357600080fd5b506101e66004803603810190808035906020019092919080359060200190929190803563ffffffff16906020019092919080359060200190929190505050610668565b6040518082815260200191505060405180910390f35b34801561020857600080fd5b50610211610747565b604051808260ff1660ff16815260200191505060405180910390f35b61026b600480360381019080803573ffffffffffffffffffffffffffffffffffffffff1690602001909291908035906020019092919050505061075a565b005b34801561027957600080fd5b506102bc6004803603810190808035906020019092919080359060200190929190803563ffffffff16906020019092919080359060200190929190505050610b12565b6040518082815260200191505060405180910390f35b3480156102de57600080fd5b506102e7610c16565b604051808263ffffffff1663ffffffff16815260200191505060405180910390f35b34801561031557600080fd5b5061031e610c2c565b6040518080602001828103825283818151815260200191508051906020019080838360005b8381101561035e578082015181840152602081019050610343565b50505050905090810190601f16801561038b5780820380516001836020036101000a031916815260200191505b509250505060405180910390f35b3480156103a557600080fd5b506103f860048036038101908080359060200190929190803563ffffffff16906020019092919080359060200190929190803563ffffffff16906020019092919080359060200190929190505050610cca565b6040518082815260200191505060405180910390f35b34801561041a57600080fd5b50610423610dd8565b604051808263ffffffff1663ffffffff16815260200191505060405180910390f35b61052d600480360381019080803573ffffffffffffffffffffffffffffffffffffffff169060200190929190803590602001908201803590602001908080601f0160208091040260200160405190810160405280939291908181526020018383808284378201915050505050509192919290803590602001908201803590602001908080601f0160208091040260200160405190810160405280939291908181526020018383808284378201915050505050509192919290803560ff169060200190929190803560ff1690602001909291908035600019169060200190929190505050610dee565b604051808215151515815260200191505060405180910390f35b34801561055357600080fd5b50610586600480360381019080803590602001909291908035906020019092919080359060200190929190505050610dfe565b6040518082815260200191505060405180910390f35b3480156105a857600080fd5b506105e7600480360381019080803573ffffffffffffffffffffffffffffffffffffffff16906020019092919080359060200190929190505050610e36565b005b3480156105f557600080fd5b506105fe6112e5565b6040518082815260200191505060405180910390f35b60006106438361063561063085886112eb90919063ffffffff16565b611307565b6113b090919063ffffffff16565b90509392505050565b608360009054906101000a900463ffffffff1681565b60825481565b6000806000806000808911801561067f5750600088115b8015610691575060008763ffffffff16115b80156106ac5750620f424063ffffffff168763ffffffff1611155b15156106b757600080fd5b60008614156106c9576000945061073b565b620f424063ffffffff168763ffffffff1614156106fc57876106eb8a886113c9565b8115156106f457fe5b04945061073b565b61070686896113fc565b9150610717828989620f424061141a565b80945081955050508260ff1661072d8a866113c9565b9060020a9004905088810394505b50505050949350505050565b608360049054906101000a900460ff1681565b60008060008060008673ffffffffffffffffffffffffffffffffffffffff166318160ddd6040518163ffffffff167c0100000000000000000000000000000000000000000000000000000000028152600401602060405180830381600087803b1580156107c657600080fd5b505af11580156107da573d6000803e3d6000fd5b505050506040513d60208110156107f057600080fd5b810190808051906020019092919050505094508673ffffffffffffffffffffffffffffffffffffffff166396365d446040518163ffffffff167c0100000000000000000000000000000000000000000000000000000000028152600401602060405180830381600087803b15801561086757600080fd5b505af115801561087b573d6000803e3d6000fd5b505050506040513d602081101561089157600080fd5b810190808051906020019092919050505093503492506108b2858588610614565b91508134101515156108c357600080fd5b8673ffffffffffffffffffffffffffffffffffffffff166340c10f1933886040518363ffffffff167c0100000000000000000000000000000000000000000000000000000000028152600401808373ffffffffffffffffffffffffffffffffffffffff1673ffffffffffffffffffffffffffffffffffffffff16815260200182815260200192505050602060405180830381600087803b15801561096657600080fd5b505af115801561097a573d6000803e3d6000fd5b505050506040513d602081101561099057600080fd5b810190808051906020019092919050505015156109ac57600080fd5b6109bf82856112eb90919063ffffffff16565b93508673ffffffffffffffffffffffffffffffffffffffff166354dfcab6856040518263ffffffff167c010000000000000000000000000000000000000000000000000000000002815260040180828152602001915050600060405180830381600087803b158015610a3057600080fd5b505af1158015610a44573d6000803e3d6000fd5b5050505081831115610ac257610a6382846113b090919063ffffffff16565b90503373ffffffffffffffffffffffffffffffffffffffff166108fc829081150290604051600060405180830381858888f19350505050158015610aab573d6000803e3d6000fd5b50610abf81846113b090919063ffffffff16565b92505b8673ffffffffffffffffffffffffffffffffffffffff166108fc849081150290604051600060405180830381858888f19350505050158015610b08573d6000803e3d6000fd5b5050505050505050565b60008060008060008060008a118015610b2b5750600089115b8015610b3d575060008863ffffffff16115b8015610b585750620f424063ffffffff168863ffffffff1611155b8015610b645750898711155b1515610b6f57600080fd5b6000871415610b815760009550610c09565b89871415610b9157889550610c09565b620f424063ffffffff168863ffffffff161415610bc45789610bb38a896113c9565b811515610bbc57fe5b049550610c09565b868a039250610bd88a84620f42408b61141a565b8095508196505050610bea89866113c9565b91508360ff16899060020a02905084818303811515610c0557fe5b0495505b5050505050949350505050565b608360059054906101000a900463ffffffff1681565b60008054600181600116156101000203166002900480601f016020809104026020016040519081016040528092919081815260200182805460018160011615610100020316600290048015610cc25780601f10610c9757610100808354040283529160200191610cc2565b820191906000526020600020905b815481529060010190602001808311610ca557829003601f168201915b505050505081565b60008060008060008060008b118015610ce9575060008a63ffffffff16115b8015610d045750620f424063ffffffff168a63ffffffff1611155b8015610d105750600089115b8015610d22575060008863ffffffff16115b8015610d3d5750620f424063ffffffff168863ffffffff1611155b1515610d4857600080fd5b8763ffffffff168a63ffffffff161415610d8157610d668b886113fc565b610d708a896113c9565b811515610d7957fe5b049550610dca565b610d8b8b886113fc565b9250610d99838c8c8b61141a565b8095508196505050610dab89866113c9565b91508360ff16899060020a02905084818303811515610dc657fe5b0495505b505050505095945050505050565b608360099054906101000a900463ffffffff1681565b6000600190509695505050505050565b6000610e2d610e1e610e1984876113b090919063ffffffff16565b611307565b846113b090919063ffffffff16565b90509392505050565b6000806000808573ffffffffffffffffffffffffffffffffffffffff166370a08231336040518263ffffffff167c0100000000000000000000000000000000000000000000000000000000028152600401808273ffffffffffffffffffffffffffffffffffffffff1673ffffffffffffffffffffffffffffffffffffffff168152602001915050602060405180830381600087803b158015610ed757600080fd5b505af1158015610eeb573d6000803e3d6000fd5b505050506040513d6020811015610f0157600080fd5b81019080805190602001909291905050509350848410151515610f2357600080fd5b8573ffffffffffffffffffffffffffffffffffffffff166318160ddd6040518163ffffffff167c0100000000000000000000000000000000000000000000000000000000028152600401602060405180830381600087803b158015610f8757600080fd5b505af1158015610f9b573d6000803e3d6000fd5b505050506040513d6020811015610fb157600080fd5b810190808051906020019092919050505092508573ffffffffffffffffffffffffffffffffffffffff166396365d446040518163ffffffff167c0100000000000000000000000000000000000000000000000000000000028152600401602060405180830381600087803b15801561102857600080fd5b505af115801561103c573d6000803e3d6000fd5b505050506040513d602081101561105257600080fd5b81019080805190602001909291905050509150611070838387610dfe565b90508573ffffffffffffffffffffffffffffffffffffffff16639dc29fac33876040518363ffffffff167c0100000000000000000000000000000000000000000000000000000000028152600401808373ffffffffffffffffffffffffffffffffffffffff1673ffffffffffffffffffffffffffffffffffffffff16815260200182815260200192505050602060405180830381600087803b15801561111557600080fd5b505af1158015611129573d6000803e3d6000fd5b505050506040513d602081101561113f57600080fd5b8101908080519060200190929190505050151561115b57600080fd5b8573ffffffffffffffffffffffffffffffffffffffff166354dfcab661118a83856113b090919063ffffffff16565b6040518263ffffffff167c010000000000000000000000000000000000000000000000000000000002815260040180828152602001915050600060405180830381600087803b1580156111dc57600080fd5b505af11580156111f0573d6000803e3d6000fd5b505050508573ffffffffffffffffffffffffffffffffffffffff166349dcbc5e33836040518363ffffffff167c0100000000000000000000000000000000000000000000000000000000028152600401808373ffffffffffffffffffffffffffffffffffffffff1673ffffffffffffffffffffffffffffffffffffffff16815260200182815260200192505050602060405180830381600087803b15801561129757600080fd5b505af11580156112ab573d6000803e3d6000fd5b505050506040513d60208110156112c157600080fd5b810190808051906020019092919050505015156112dd57600080fd5b505050505050565b60815481565b600081830190508281101515156112fe57fe5b80905092915050565b6000806001608360059054906101000a900463ffffffff160163ffffffff1690506113a8608360059054906101000a900463ffffffff1663ffffffff16608360049054906101000a900460ff1660ff1602600a0a61139a608360099054906101000a900463ffffffff1663ffffffff1661138c8586890a61151290919063ffffffff16565b61151290919063ffffffff16565b61151290919063ffffffff16565b915050919050565b60008282111515156113be57fe5b818303905092915050565b600080828402905060008414806113ea57508284828115156113e757fe5b04145b15156113f257fe5b8091505092915050565b600080828401905083811015151561141057fe5b8091505092915050565b6000806000806000807002000000000000000000000000000000008a10151561143f57fe5b886f800000000000000000000000000000008b0281151561145c57fe5b04925070015bf0a8b1457695355fb8ac404e7a79e38310156114885761148183611528565b9350611494565b61149183611af7565b93505b8663ffffffff168863ffffffff1685028115156114ad57fe5b0491507008000000000000000000000000000000008210156114dd576114d282611c2d565b607f95509550611505565b6114e6826121ed565b90506114ff81607f0360ff16839060020a9004826122ad565b81955095505b5050505094509492505050565b6000818381151561151f57fe5b04905092915050565b60008060008060008093506fd3094c70f034de4b96ff7d5b6f99fcd886101515611592576f40000000000000000000000000000000840193506fd3094c70f034de4b96ff7d5b6f99fcd86f80000000000000000000000000000000870281151561158e57fe5b0495505b6fa45af1e1f40c333b3de1db4dd55f29a7861015156115f1576f20000000000000000000000000000000840193506fa45af1e1f40c333b3de1db4dd55f29a76f8000000000000000000000000000000087028115156115ed57fe5b0495505b6f910b022db7ae67ce76b441c27035c6a186101515611650576f10000000000000000000000000000000840193506f910b022db7ae67ce76b441c27035c6a16f80000000000000000000000000000000870281151561164c57fe5b0495505b6f88415abbe9a76bead8d00cf112e4d4a8861015156116af576f08000000000000000000000000000000840193506f88415abbe9a76bead8d00cf112e4d4a86f8000000000000000000000000000000087028115156116ab57fe5b0495505b6f84102b00893f64c705e841d5d4064bd38610151561170e576f04000000000000000000000000000000840193506f84102b00893f64c705e841d5d4064bd36f80000000000000000000000000000000870281151561170a57fe5b0495505b6f8204055aaef1c8bd5c3259f4822735a28610151561176d576f02000000000000000000000000000000840193506f8204055aaef1c8bd5c3259f4822735a26f80000000000000000000000000000000870281151561176957fe5b0495505b6f810100ab00222d861931c15e39b44e99861015156117cc576f01000000000000000000000000000000840193506f810100ab00222d861931c15e39b44e996f8000000000000000000000000000000087028115156117c857fe5b0495505b6f808040155aabbbe9451521693554f7338610151561182a576e800000000000000000000000000000840193506f808040155aabbbe9451521693554f7336f80000000000000000000000000000000870281151561182657fe5b0495505b6f80000000000000000000000000000000860392508291506f8000000000000000000000000000000083840281151561185f57fe5b0490507001000000000000000000000000000000008370010000000000000000000000000000000003830281151561189357fe5b04840193506f800000000000000000000000000000008183028115156118b557fe5b049150700200000000000000000000000000000000836faaaaaaaaaaaaaaaaaaaaaaaaaaaaaaaa0383028115156118e857fe5b04840193506f8000000000000000000000000000000081830281151561190a57fe5b049150700300000000000000000000000000000000836f9999999999999999999999999999999903830281151561193d57fe5b04840193506f8000000000000000000000000000000081830281151561195f57fe5b049150700400000000000000000000000000000000836f9249249249249249249249249249249203830281151561199257fe5b04840193506f800000000000000000000000000000008183028115156119b457fe5b049150700500000000000000000000000000000000836f8e38e38e38e38e38e38e38e38e38e38e0383028115156119e757fe5b04840193506f80000000000000000000000000000000818302811515611a0957fe5b049150700600000000000000000000000000000000836f8ba2e8ba2e8ba2e8ba2e8ba2e8ba2e8b038302811515611a3c57fe5b04840193506f80000000000000000000000000000000818302811515611a5e57fe5b049150700700000000000000000000000000000000836f89d89d89d89d89d89d89d89d89d89d89038302811515611a9157fe5b04840193506f80000000000000000000000000000000818302811515611ab357fe5b049150700800000000000000000000000000000000836f88888888888888888888888888888888038302811515611ae657fe5b048401935083945050505050919050565b6000806000806000925070010000000000000000000000000000000085101515611b6757611b3f6f8000000000000000000000000000000086811515611b3957fe5b046126d1565b91508160ff16859060020a900494506f800000000000000000000000000000008260ff160292505b6f80000000000000000000000000000000851115611bf557607f90505b60008160ff161115611bf4576f80000000000000000000000000000000858602811515611bad57fe5b04945070010000000000000000000000000000000085101515611be8576001859060020a900494506001810360ff1660019060020a02830192505b80600190039050611b84565b5b6f05b9de1d10bf4103d647b0955897ba806f03f80fe03f80fe03f80fe03f80fe03f88402811515611c2257fe5b049350505050919050565b600080600080600092506f1000000000000000000000000000000085811515611c5257fe5b0691508190506f80000000000000000000000000000000828202811515611c7557fe5b0490506710e1b3be415a00008102830192506f80000000000000000000000000000000828202811515611ca457fe5b0490506705a0913f6b1e00008102830192506f80000000000000000000000000000000828202811515611cd357fe5b049050670168244fdac780008102830192506f80000000000000000000000000000000828202811515611d0257fe5b049050664807432bc180008102830192506f80000000000000000000000000000000828202811515611d3057fe5b049050660c0135dca040008102830192506f80000000000000000000000000000000828202811515611d5e57fe5b0490506601b707b1cdc0008102830192506f80000000000000000000000000000000828202811515611d8c57fe5b0490506536e0f639b8008102830192506f80000000000000000000000000000000828202811515611db957fe5b049050650618fee9f8008102830192506f80000000000000000000000000000000828202811515611de657fe5b049050649c197dcc008102830192506f80000000000000000000000000000000828202811515611e1257fe5b049050640e30dce4008102830192506f80000000000000000000000000000000828202811515611e3e57fe5b04905064012ebd13008102830192506f80000000000000000000000000000000828202811515611e6a57fe5b0490506317499f008102830192506f80000000000000000000000000000000828202811515611e9557fe5b0490506301a9d4808102830192506f80000000000000000000000000000000828202811515611ec057fe5b049050621c63808102830192506f80000000000000000000000000000000828202811515611eea57fe5b0490506201c6388102830192506f80000000000000000000000000000000828202811515611f1457fe5b049050611ab88102830192506f80000000000000000000000000000000828202811515611f3d57fe5b04905061017c8102830192506f80000000000000000000000000000000828202811515611f6657fe5b04905060148102830192506f80000000000000000000000000000000828202811515611f8e57fe5b04905060018102830192506f80000000000000000000000000000000826721c3677c82b4000085811515611fbe57fe5b040101925060006f1000000000000000000000000000000086161415156120125770018ebef9eac820ae8682b9793ac6d1e7767001c3d6a24ed82218787d624d3e5eba95f9840281151561200e57fe5b0492505b60006f200000000000000000000000000000008616141515612061577001368b2fc6f9609fe7aceb46aa619baed470018ebef9eac820ae8682b9793ac6d1e778840281151561205d57fe5b0492505b60006f4000000000000000000000000000000086161415156120af576fbc5ab1b16779be3575bd8f0520a9f21f7001368b2fc6f9609fe7aceb46aa619baed584028115156120ab57fe5b0492505b60006f8000000000000000000000000000000086161415156120fc576f454aaa8efe072e7f6ddbab84b40a55c96fbc5ab1b16779be3575bd8f0520a9f21e84028115156120f857fe5b0492505b6000700100000000000000000000000000000000861614151561214a576f0960aadc109e7a3bf4578099615711ea6f454aaa8efe072e7f6ddbab84b40a55c5840281151561214657fe5b0492505b60007002000000000000000000000000000000008616141515612197576e2bf84208204f5977f9a8cf01fdce3d6f0960aadc109e7a3bf4578099615711d7840281151561219357fe5b0492505b600070040000000000000000000000000000000086161415156121e2576d03c6ab775dd0b95b4cbee7e65d116e2bf84208204f5977f9a8cf01fdc30784028115156121de57fe5b0492505b829350505050919050565b60008060008060209250607f91505b8160ff166001840160ff16101561224e57600282840160ff1681151561221e57fe5b0490508460018260ff1660808110151561223457fe5b015410151561224557809250612249565b8091505b6121fc565b8460018360ff1660808110151561226157fe5b0154101515612272578193506122a5565b8460018460ff1660808110151561228557fe5b0154101515612296578293506122a5565b600015156122a057fe5b600093505b505050919050565b6000806000849150600090508360ff168583029060020a900491506f03442c4e6074a82f1797f72ac00000008202810190508360ff168583029060020a900491506f0116b96f757c380fb287fd0e400000008202810190508360ff168583029060020a900491506e45ae5bdd5f0e03eca1ff43900000008202810190508360ff168583029060020a900491506e0defabf91302cd95b9ffda500000008202810190508360ff168583029060020a900491506e02529ca9832b22439efff9b80000008202810190508360ff168583029060020a900491506d54f1cf12bd04e516b6da880000008202810190508360ff168583029060020a900491506d0a9e39e257a09ca2d6db510000008202810190508360ff168583029060020a900491506d012e066e7b839fa050c3090000008202810190508360ff168583029060020a900491506c1e33d7d926c329a1ad1a8000008202810190508360ff168583029060020a900491506c02bee513bdb4a6b19b5f8000008202810190508360ff168583029060020a900491506b3a9316fa79b88eccf2a000008202810190508360ff168583029060020a900491506b048177ebe1fa8123752000008202810190508360ff168583029060020a900491506a5263fe90242dcbacf000008202810190508360ff168583029060020a900491506a057e22099c030d941000008202810190508360ff168583029060020a900491506957e22099c030d94100008202810190508360ff168583029060020a9004915069052b6b545699763100008202810190508360ff168583029060020a90049150684985f67696bf7480008202810190508360ff168583029060020a900491506803dea12ea99e4980008202810190508360ff168583029060020a900491506731880f2214b6e0008202810190508360ff168583029060020a9004915067025bcff56eb360008202810190508360ff168583029060020a90049150661b722e10ab10008202810190508360ff168583029060020a900491506601317c700770008202810190508360ff168583029060020a90049150650cba84aafa008202810190508360ff168583029060020a900491506482573a0a008202810190508360ff168583029060020a900491506405035ad9008202810190508360ff168583029060020a90049150632f881b008202810190508360ff168583029060020a900491506301b293408202810190508360ff168583029060020a90049150620efc408202810190508360ff168583029060020a90049150617fe08202810190508360ff168583029060020a900491506104208202810190508360ff168583029060020a9004915060218202810190508360ff168583029060020a9004915060018202810190508360ff1660019060020a02856f0688589cc0e9505e2f2fee5580000000838115156126c457fe5b0401019250505092915050565b6000806000809150610100841015612708575b6001841115612703576001849060020a900493506001820191506126e4565b612753565b608090505b60008160ff161115612752578060ff1660019060020a028410151561273f578060ff16849060020a9004935080821791505b60018160ff169060020a9004905061270d565b5b81925050509190505600a165627a7a72305820ba57066f20078a928ab51a37e34bf3ed829092d800d754ff7bc962680ffbae220029",
  "source": "import \"./ControllerI.sol\";\nimport \"./ERC20MainI.sol\";\nimport \"zeppelin-solidity/contracts/math/SafeMath.sol\";\nimport \"bancor-contracts/solidity/contracts/converter/BancorFormula.sol\";\n\ncontract Controller is ControllerI, BancorFormula {\n    using SafeMath for uint256;\n    uint256 public virtualBalance;\n    uint256 public virtualSupply;\n    uint32 public reserveRatio;  // represented in ppm, 1-1000000\n    uint8 public decimals = 18;\n    uint32 public exponent = 2;\n    uint32 public slope = 1000;\n    event logUint256(uint256 number);\n    event logUint8(uint8 number);\n\n    event Buy(address indexed memeMarket, address indexed to, uint256 poolBalance, uint tokenSupply, uint256 amountTokens, uint256 totalCostEth);\n    event Sell(address indexed memeMarket, address indexed from, uint256 poolBalance, uint tokenSupply, uint256 amountTokens, uint256 returnedEth);\n\n    event Minted(uint256 amount, uint256 totalCost);\n    event Burned(uint256 amount, uint256 reward);\n/*\n    constructor (uint32 _reserveRatio, uint256 _virtualSupply, uint256 _virtualBalance) public {\n        reserveRatio = _reserveRatio;\n        virtualSupply = _virtualSupply;\n        virtualBalance = _virtualBalance;\n    }\n\n\n    function getBuy(uint256 totalSupply, uint256 poolBalance, uint256 buyValue) public constant returns(uint256) {\n        return calculatePurchaseReturn(\n            safeAdd(totalSupply, virtualSupply),\n            safeAdd(poolBalance, virtualBalance),\n            reserveRatio,\n            buyValue);\n    }\n\n\n    function getSell(uint256 totalSupply, uint256 poolBalance, uint256 sellAmount) public constant returns(uint256) {\n        return calculateSaleReturn(\n            safeAdd(totalSupply, virtualSupply),\n            safeAdd(poolBalance, virtualBalance),\n            reserveRatio,\n            sellAmount);\n    }\n\n    function buy(address memeMarket, address sender) public payable returns(bool) {\n        require(msg.value > 0);\n        uint256 totalSupply = ERC20MainI(memeMarket).totalSupply();\n        uint256 poolBalance = ERC20MainI(memeMarket).poolBalance();\n        uint256 tokens = getBuy(totalSupply, poolBalance, msg.value);\n        require(tokens > 0);\n        require(ERC20MainI(memeMarket).mint(sender, tokens));\n\n        ERC20MainI(memeMarket).setPoolBalance(poolBalance.add(msg.value));\n        memeMarket.transfer(msg.value);\n        emit Buy(memeMarket, sender, ERC20MainI(memeMarket).poolBalance(), ERC20MainI(memeMarket).totalSupply(), tokens, msg.value);\n        return true;\n    }\n\n    function sell(address memeMarket, uint256 sellAmount) public returns(bool) {\n        require(sellAmount > 0);\n        require(ERC20MainI(memeMarket).balanceOf(msg.sender) >= sellAmount);\n        uint256 totalSupply = ERC20MainI(memeMarket).totalSupply();\n        uint256 poolBalance = ERC20MainI(memeMarket).poolBalance();\n        uint256 saleReturn = getSell(totalSupply, poolBalance, sellAmount);\n\n        require(saleReturn > 0);\n        require(saleReturn <= poolBalance);\n        require(ERC20MainI(memeMarket).burn(msg.sender, sellAmount));\n        ERC20MainI(memeMarket).setPoolBalance(poolBalance.sub(saleReturn));\n        require(ERC20MainI(memeMarket).sendEth(msg.sender, saleReturn));\n\n        emit Sell(memeMarket, msg.sender, ERC20MainI(memeMarket).poolBalance(), ERC20MainI(memeMarket).totalSupply(), sellAmount, saleReturn);\n        return true;\n    } */\n\n    /// @dev        Calculate the integral from 0 to t\n    /// @param t    The number to integrate to\n    function curveIntegral(uint256 t) internal returns (uint256) {\n        uint256 nexp = exponent + 1;\n        return (t ** nexp).div(nexp).div(slope).div((10 ** (uint256(decimals) * uint256(exponent))));\n    }\n\n    function priceToMint(uint256 totalSupply, uint256 poolBalance, uint256 numTokens) public returns(uint256) {\n        return curveIntegral(totalSupply.add(numTokens)).sub(poolBalance);\n    }\n\n    function rewardForBurn(uint256 totalSupply, uint256 poolBalance, uint256 numTokens) public returns(uint256) {\n        return poolBalance.sub(curveIntegral(totalSupply.sub(numTokens)));\n    }\n\n\n    function mint(address memeMarket, uint256 numTokens) public payable {\n        uint256 totalSupply = ERC20MainI(memeMarket).totalSupply();\n        uint256 poolBalance = ERC20MainI(memeMarket).poolBalance();\n        uint256 sentEther = msg.value;\n\n        uint256 priceForTokens = priceToMint(totalSupply, poolBalance, numTokens);\n        require(msg.value >= priceForTokens);\n        require(ERC20MainI(memeMarket).mint(msg.sender, numTokens));\n        /* totalSupply_ = totalSupply_.add(numTokens);\n        balances[msg.sender] = balances[msg.sender].add(numTokens); */\n        poolBalance = poolBalance.add(priceForTokens);\n        ERC20MainI(memeMarket).setPoolBalance(poolBalance);\n\n        if (sentEther > priceForTokens) {\n          uint256 refundAmount = sentEther.sub(priceForTokens);\n          msg.sender.transfer(refundAmount);\n          sentEther = sentEther.sub(refundAmount);\n        }\n        memeMarket.transfer(sentEther);\n\n        /* emit Minted(numTokens, priceForTokens); */\n    }\n\n    /// @dev                Burn tokens to receive ether\n    /// @param numTokens    The number of tokens that you want to burn\n    function burn(address memeMarket, uint256 numTokens) public {\n        uint256 senderBalance = ERC20MainI(memeMarket).balanceOf(msg.sender);\n        require(senderBalance >= numTokens);\n\n        uint256 totalSupply = ERC20MainI(memeMarket).totalSupply();\n        uint256 poolBalance = ERC20MainI(memeMarket).poolBalance();\n\n        uint256 ethToReturn = rewardForBurn(totalSupply, poolBalance, numTokens);\n\n        require(ERC20MainI(memeMarket).burn(msg.sender, numTokens));\n        ERC20MainI(memeMarket).setPoolBalance(poolBalance.sub(ethToReturn));\n        require(ERC20MainI(memeMarket).sendEth(msg.sender, ethToReturn));\n\n        /* emit Burned(numTokens, ethToReturn); */\n    }\n\n    function initMeme(\n        address sender,\n        string _name,\n        string _symbol,\n        uint8 hash_function,\n        uint8 size,\n        bytes32 _memehash\n    ) public payable returns (bool) {\n        /* if (msg.value > 0) {\n            require(buy(msg.sender, sender));\n        } */\n        //@TODO if this is called with no numTokens and msg.value, the ether gets trapped in controller\n        return true;\n    }\n}\n",
  "sourcePath": "/Users/billy/sol/meme-lordz/contracts/Controller.sol",
  "compiler": {
    "name": "solc",
    "version": "0.4.24+commit.e67f0147.Emscripten.clang"
  },
  "schemaVersion": "2.0.1",
  "updatedAt": "2018-09-09T08:43:38.275Z"
}