{
  "contractName": "ProxyFactory",
  "abi": [
    {
      "constant": true,
      "inputs": [],
      "name": "target",
      "outputs": [
        {
          "name": "",
          "type": "address"
        }
      ],
      "payable": false,
      "stateMutability": "view",
      "type": "function"
    },
    {
      "inputs": [
        {
          "name": "_target",
          "type": "address"
        }
      ],
      "payable": false,
      "stateMutability": "nonpayable",
      "type": "constructor"
    },
    {
      "anonymous": false,
      "inputs": [
        {
          "indexed": false,
          "name": "proxyAddress",
          "type": "address"
        },
        {
          "indexed": false,
          "name": "targetAddress",
          "type": "address"
        }
      ],
      "name": "ProxyDeployed",
      "type": "event"
    },
    {
      "constant": false,
      "inputs": [
        {
          "name": "_data",
          "type": "bytes"
        }
      ],
      "name": "createProxy",
      "outputs": [
        {
          "name": "proxyContract",
          "type": "address"
        }
      ],
      "payable": true,
      "stateMutability": "payable",
      "type": "function"
    }
  ],
  "bytecode": "0x608060405234801561001057600080fd5b5060405160208061041383398101806040528101908080519060200190929190505050806000806101000a81548173ffffffffffffffffffffffffffffffffffffffff021916908373ffffffffffffffffffffffffffffffffffffffff16021790555050610390806100836000396000f30060806040526004361061004c576000357c0100000000000000000000000000000000000000000000000000000000900463ffffffff1680638f295d5914610051578063d4b83992146100ed575b600080fd5b6100ab600480360381019080803590602001908201803590602001908080601f0160208091040260200160405190810160405280939291908181526020018383808284378201915050505050509192919290505050610144565b604051808273ffffffffffffffffffffffffffffffffffffffff1673ffffffffffffffffffffffffffffffffffffffff16815260200191505060405180910390f35b3480156100f957600080fd5b506101026102b2565b604051808273ffffffffffffffffffffffffffffffffffffffff1673ffffffffffffffffffffffffffffffffffffffff16815260200191505060405180910390f35b6000806000809054906101000a900473ffffffffffffffffffffffffffffffffffffffff1673ffffffffffffffffffffffffffffffffffffffff1663c75cdaa16040518163ffffffff167c0100000000000000000000000000000000000000000000000000000000028152600401602060405180830381600087803b1580156101cc57600080fd5b505af11580156101e0573d6000803e3d6000fd5b505050506040513d60208110156101f657600080fd5b8101908080519060200190929190505050905061021381846102d7565b91507f3d2489efb661e8b1c3679865db649ca1de61d76a71184a1234de2e55786a6aad8282604051808373ffffffffffffffffffffffffffffffffffffffff1673ffffffffffffffffffffffffffffffffffffffff1681526020018273ffffffffffffffffffffffffffffffffffffffff1673ffffffffffffffffffffffffffffffffffffffff1681526020019250505060405180910390a150919050565b6000809054906101000a900473ffffffffffffffffffffffffffffffffffffffff1681565b600060405183600b82015276603160008181600b9039f360008080808036809280377360098203527f5af43d828181803e808314602f57f35bfd000000000000000000000000000000602b820152603c816000f09150813b151561033a57600080fd5b82518015151561035c57600080826020870134875af1151561035b57600080fd5b5b5050929150505600a165627a7a723058209410117e3cca46557301c90a40b9c8a84f636f342ff173fccdf3de8017654d660029",
  "source": "/***\n* Shoutouts:\n*\n* Bytecode origin https://www.reddit.com/r/ethereum/comments/6ic49q/any_assembly_programmers_willing_to_write_a/dj5ceuw/\n* Modified version of Vitalik's https://www.reddit.com/r/ethereum/comments/6c1jui/delegatecall_forwarders_how_to_save_5098_on/\n* Credits to Jorge Izquierdo (@izqui) for coming up with this design here: https://gist.github.com/izqui/7f904443e6d19c1ab52ec7f5ad46b3a8\n* Credits to Stefan George (@Georgi87) for inspiration for many of the improvements from Gnosis Safe: https://github.com/gnosis/gnosis-safe-contracts\n*\n* This version has many improvements over the original @izqui's library like using REVERT instead of THROWing on failed calls.\n* It also implements the awesome design pattern for initializing code as seen in Gnosis Safe Factory: https://github.com/gnosis/gnosis-safe-contracts/blob/master/contracts/ProxyFactory.sol\n* but unlike this last one it doesn't require that you waste storage on both the proxy and the proxied contracts (v. https://github.com/gnosis/gnosis-safe-contracts/blob/master/contracts/Proxy.sol#L8 & https://github.com/gnosis/gnosis-safe-contracts/blob/master/contracts/GnosisSafe.sol#L14)\n*\n*\n* v0.0.2\n* The proxy is now only 60 bytes long in total. Constructor included.\n* No functionalities were added. The change was just to make the proxy leaner.\n*\n* v0.0.3\n* Thanks @dacarley for noticing the incorrect check for the subsequent call to the proxy. 🙌\n* Note: I'm creating a new version of this that doesn't need that one call.\n*       Will add tests and put this in its own repository soon™.\n*\n* v0.0.4\n* All the merit in this fix + update of the factory is @dacarley 's. 🙌\n* Thank you! 😄\n*\n* Potential updates can be found at https://gist.github.com/GNSPS/ba7b88565c947cfd781d44cf469c2ddb\n*\n***/\n\npragma solidity ^0.4.19;\n\nimport './ControllerPointer.sol';\n\n/* solhint-disable no-inline-assembly, indent, state-visibility, avoid-low-level-calls */\n\ncontract ProxyFactory {\n    address public target;\n\n    constructor(address _target) public {\n      target = _target;\n    }\n\n    event ProxyDeployed(address proxyAddress, address targetAddress);\n\n    function createProxy(bytes _data)\n        public\n        payable\n        returns (address proxyContract)\n    {\n        address _target = ControllerPointer(target).getERC20Main();\n        proxyContract = createProxyImpl(_target, _data);\n\n        emit ProxyDeployed(proxyContract, _target);\n    }\n\n    function createProxyImpl(address _target, bytes _data)\n        internal\n        returns (address proxyContract)\n    {\n        assembly {\n            let contractCode := mload(0x40) // Find empty storage location using \"free memory pointer\"\n\n            mstore(add(contractCode, 0x0b), _target) // Add target address, with a 11 bytes [i.e. 23 - (32 - 20)] offset to later accomodate first part of the bytecode\n            mstore(sub(contractCode, 0x09), 0x000000000000000000603160008181600b9039f3600080808080368092803773) // First part of the bytecode, shifted left by 9 bytes, overwrites left padding of target address\n            mstore(add(contractCode, 0x2b), 0x5af43d828181803e808314602f57f35bfd000000000000000000000000000000) // Final part of bytecode, offset by 43 bytes\n\n            proxyContract := create(0, contractCode, 60) // total length 60 bytes\n            if iszero(extcodesize(proxyContract)) {\n                revert(0, 0)\n            }\n\n            // check if the _data.length > 0 and if it is forward it to the newly created contract\n            let dataLength := mload(_data)\n            if iszero(iszero(dataLength)) {\n                if iszero(call(gas, proxyContract, callvalue, add(_data, 0x20), dataLength, 0, 0)) {\n                    revert(0, 0)\n                }\n            }\n        }\n    }\n}",
  "sourcePath": "/media/000/Documents/meme-lordz/contracts/ProxyFactory.sol",
  "compiler": {
    "name": "solc",
    "version": "0.4.24+commit.e67f0147.Emscripten.clang"
  },
  "schemaVersion": "2.0.1",
  "updatedAt": "2018-09-08T15:27:05.840Z"
}